{
  "_format": "hh-sol-artifact-1",
  "contractName": "TokenSwap",
  "sourceName": "contracts/TokenSwap.sol",
  "abi": [
    {
      "inputs": [
        {
          "internalType": "address",
          "name": "_feeCollector",
          "type": "address"
        }
      ],
      "stateMutability": "nonpayable",
      "type": "constructor"
    },
    {
      "inputs": [
        {
          "internalType": "address",
          "name": "owner",
          "type": "address"
        }
      ],
      "name": "OwnableInvalidOwner",
      "type": "error"
    },
    {
      "inputs": [
        {
          "internalType": "address",
          "name": "account",
          "type": "address"
        }
      ],
      "name": "OwnableUnauthorizedAccount",
      "type": "error"
    },
    {
      "inputs": [],
      "name": "ReentrancyGuardReentrantCall",
      "type": "error"
    },
    {
      "anonymous": false,
      "inputs": [
        {
          "indexed": true,
          "internalType": "address",
          "name": "tokenA",
          "type": "address"
        },
        {
          "indexed": true,
          "internalType": "address",
          "name": "tokenB",
          "type": "address"
        },
        {
          "indexed": false,
          "internalType": "uint256",
          "name": "rate",
          "type": "uint256"
        }
      ],
      "name": "ExchangeRateUpdated",
      "type": "event"
    },
    {
      "anonymous": false,
      "inputs": [
        {
          "indexed": false,
          "internalType": "uint256",
          "name": "newFee",
          "type": "uint256"
        }
      ],
      "name": "FeeUpdated",
      "type": "event"
    },
    {
      "anonymous": false,
      "inputs": [
        {
          "indexed": true,
          "internalType": "address",
          "name": "previousOwner",
          "type": "address"
        },
        {
          "indexed": true,
          "internalType": "address",
          "name": "newOwner",
          "type": "address"
        }
      ],
      "name": "OwnershipTransferred",
      "type": "event"
    },
    {
      "anonymous": false,
      "inputs": [
        {
          "indexed": true,
          "internalType": "address",
          "name": "user",
          "type": "address"
        },
        {
          "indexed": true,
          "internalType": "address",
          "name": "tokenIn",
          "type": "address"
        },
        {
          "indexed": true,
          "internalType": "address",
          "name": "tokenOut",
          "type": "address"
        },
        {
          "indexed": false,
          "internalType": "uint256",
          "name": "amountIn",
          "type": "uint256"
        },
        {
          "indexed": false,
          "internalType": "uint256",
          "name": "amountOut",
          "type": "uint256"
        },
        {
          "indexed": false,
          "internalType": "uint256",
          "name": "fee",
          "type": "uint256"
        }
      ],
      "name": "Swap",
      "type": "event"
    },
    {
      "inputs": [
        {
          "internalType": "address",
          "name": "token",
          "type": "address"
        },
        {
          "internalType": "uint256",
          "name": "amount",
          "type": "uint256"
        }
      ],
      "name": "emergencyWithdraw",
      "outputs": [],
      "stateMutability": "nonpayable",
      "type": "function"
    },
    {
      "inputs": [
        {
          "internalType": "address",
          "name": "",
          "type": "address"
        },
        {
          "internalType": "address",
          "name": "",
          "type": "address"
        }
      ],
      "name": "exchangeRates",
      "outputs": [
        {
          "internalType": "uint256",
          "name": "",
          "type": "uint256"
        }
      ],
      "stateMutability": "view",
      "type": "function"
    },
    {
      "inputs": [],
      "name": "feeCollector",
      "outputs": [
        {
          "internalType": "address",
          "name": "",
          "type": "address"
        }
      ],
      "stateMutability": "view",
      "type": "function"
    },
    {
      "inputs": [
        {
          "internalType": "address",
          "name": "tokenIn",
          "type": "address"
        },
        {
          "internalType": "address",
          "name": "tokenOut",
          "type": "address"
        },
        {
          "internalType": "uint256",
          "name": "amountIn",
          "type": "uint256"
        }
      ],
      "name": "getAmountOut",
      "outputs": [
        {
          "internalType": "uint256",
          "name": "amountOut",
          "type": "uint256"
        },
        {
          "internalType": "uint256",
          "name": "fee",
          "type": "uint256"
        }
      ],
      "stateMutability": "view",
      "type": "function"
    },
    {
      "inputs": [],
      "name": "owner",
      "outputs": [
        {
          "internalType": "address",
          "name": "",
          "type": "address"
        }
      ],
      "stateMutability": "view",
      "type": "function"
    },
    {
      "inputs": [],
      "name": "renounceOwnership",
      "outputs": [],
      "stateMutability": "nonpayable",
      "type": "function"
    },
    {
      "inputs": [
        {
          "internalType": "address",
          "name": "tokenA",
          "type": "address"
        },
        {
          "internalType": "address",
          "name": "tokenB",
          "type": "address"
        },
        {
          "internalType": "uint256",
          "name": "rate",
          "type": "uint256"
        }
      ],
      "name": "setExchangeRate",
      "outputs": [],
      "stateMutability": "nonpayable",
      "type": "function"
    },
    {
      "inputs": [
        {
          "internalType": "address",
          "name": "newCollector",
          "type": "address"
        }
      ],
      "name": "setFeeCollector",
      "outputs": [],
      "stateMutability": "nonpayable",
      "type": "function"
    },
    {
      "inputs": [
        {
          "internalType": "uint256",
          "name": "newFee",
          "type": "uint256"
        }
      ],
      "name": "setSwapFee",
      "outputs": [],
      "stateMutability": "nonpayable",
      "type": "function"
    },
    {
      "inputs": [
        {
          "internalType": "address",
          "name": "tokenIn",
          "type": "address"
        },
        {
          "internalType": "address",
          "name": "tokenOut",
          "type": "address"
        },
        {
          "internalType": "uint256",
          "name": "amountIn",
          "type": "uint256"
        },
        {
          "internalType": "uint256",
          "name": "minAmountOut",
          "type": "uint256"
        }
      ],
      "name": "swap",
      "outputs": [
        {
          "internalType": "uint256",
          "name": "amountOut",
          "type": "uint256"
        }
      ],
      "stateMutability": "nonpayable",
      "type": "function"
    },
    {
      "inputs": [],
      "name": "swapFeePercent",
      "outputs": [
        {
          "internalType": "uint256",
          "name": "",
          "type": "uint256"
        }
      ],
      "stateMutability": "view",
      "type": "function"
    },
    {
      "inputs": [
        {
          "internalType": "address",
          "name": "newOwner",
          "type": "address"
        }
      ],
      "name": "transferOwnership",
      "outputs": [],
      "stateMutability": "nonpayable",
      "type": "function"
    }
  ],
  "bytecode": "0x6080604052601e60035534801561001557600080fd5b50604051610cd8380380610cd8833981016040819052610034916100dd565b338061005a57604051631e4fbdf760e01b81526000600482015260240160405180910390fd5b6100638161008d565b5060018055600480546001600160a01b0319166001600160a01b039290921691909117905561010d565b600080546001600160a01b038381166001600160a01b0319831681178455604051919092169283917f8be0079c531659141344cd1fd0a4f28419497f9722a3daafe3b4186f6b6457e09190a35050565b6000602082840312156100ef57600080fd5b81516001600160a01b038116811461010657600080fd5b9392505050565b610bbc8061011c6000396000f3fe608060405234801561001057600080fd5b50600436106100b45760003560e01c80638fb9085b116100715780638fb9085b1461017457806395ccea671461017d578063a42dce8014610190578063c415b95c146101a3578063f2fde38b146101b6578063fe029156146101c957600080fd5b806334e19907146100b95780634aa06652146100ce578063503fa44f146100fb578063715018a614610134578063782aaeea1461013c5780638da5cb5b1461014f575b600080fd5b6100cc6100c73660046109ca565b6101dc565b005b6100e16100dc3660046109ff565b610265565b604080519283526020830191909152015b60405180910390f35b610126610109366004610a3b565b600260209081526000928352604080842090915290825290205481565b6040519081526020016100f2565b6100cc610325565b6100cc61014a3660046109ff565b610339565b6000546001600160a01b03165b6040516001600160a01b0390911681526020016100f2565b61012660035481565b6100cc61018b366004610a6e565b610456565b6100cc61019e366004610a98565b6104f5565b60045461015c906001600160a01b031681565b6100cc6101c4366004610a98565b610567565b6101266101d7366004610aba565b6105a5565b6101e4610923565b6103e881111561022a5760405162461bcd60e51b815260206004820152600c60248201526b08ccaca40e8dede40d0d2ced60a31b60448201526064015b60405180910390fd5b60038190556040518181527f8c4d35e54a3f2ef1134138fd8ea3daee6a3c89e10d2665996babdf70261e2c769060200160405180910390a150565b6001600160a01b0380841660009081526002602090815260408083209386168352929052908120548190806102d45760405162461bcd60e51b8152602060048201526015602482015274115e18da185b99d9481c985d19481b9bdd081cd95d605a1b6044820152606401610221565b670de0b6b3a76400006102e78286610b12565b6102f19190610b2f565b9250612710600354846103049190610b12565b61030e9190610b2f565b915061031a8284610b51565b925050935093915050565b61032d610923565b6103376000610950565b565b610341610923565b6001600160a01b0383161580159061036157506001600160a01b03821615155b6103a55760405162461bcd60e51b8152602060048201526015602482015274496e76616c696420746f6b656e206164647265737360581b6044820152606401610221565b600081116103f55760405162461bcd60e51b815260206004820152601b60248201527f52617465206d7573742062652067726561746572207468616e203000000000006044820152606401610221565b6001600160a01b0383811660008181526002602090815260408083209487168084529482529182902085905590518481527f59a196fe84b02ac66eaa374ec156916370441ddfce08830f5b33dfbdb057791a910160405180910390a3505050565b61045e610923565b816001600160a01b031663a9059cbb61047f6000546001600160a01b031690565b6040516001600160e01b031960e084901b1681526001600160a01b039091166004820152602481018490526044016020604051808303816000875af11580156104cc573d6000803e3d6000fd5b505050506040513d601f19601f820116820180604052508101906104f09190610b64565b505050565b6104fd610923565b6001600160a01b0381166105455760405162461bcd60e51b815260206004820152600f60248201526e496e76616c6964206164647265737360881b6044820152606401610221565b600480546001600160a01b0319166001600160a01b0392909216919091179055565b61056f610923565b6001600160a01b03811661059957604051631e4fbdf760e01b815260006004820152602401610221565b6105a281610950565b50565b60006105af6109a0565b836001600160a01b0316856001600160a01b0316036106095760405162461bcd60e51b815260206004820152601660248201527521b0b73737ba1039bbb0b81039b0b6b2903a37b5b2b760511b6044820152606401610221565b600083116106595760405162461bcd60e51b815260206004820152601d60248201527f416d6f756e74206d7573742062652067726561746572207468616e20300000006044820152606401610221565b6001600160a01b03808616600090815260026020908152604080832093881683529290522054806106c45760405162461bcd60e51b8152602060048201526015602482015274115e18da185b99d9481c985d19481b9bdd081cd95d605a1b6044820152606401610221565b670de0b6b3a76400006106d78286610b12565b6106e19190610b2f565b91506000612710600354846106f69190610b12565b6107009190610b2f565b905061070c8184610b51565b9250838310156107525760405162461bcd60e51b81526020600482015260116024820152700a6d8d2e0e0c2ceca40e8dede40d0d2ced607b1b6044820152606401610221565b6040516323b872dd60e01b8152336004820152306024820152604481018690526001600160a01b038816906323b872dd906064016020604051808303816000875af11580156107a5573d6000803e3d6000fd5b505050506040513d601f19601f820116820180604052508101906107c99190610b64565b5060405163a9059cbb60e01b8152336004820152602481018490526001600160a01b0387169063a9059cbb906044016020604051808303816000875af1158015610817573d6000803e3d6000fd5b505050506040513d601f19601f8201168201806040525081019061083b9190610b64565b5080156108bd576004805460405163a9059cbb60e01b81526001600160a01b03918216928101929092526024820183905287169063a9059cbb906044016020604051808303816000875af1158015610897573d6000803e3d6000fd5b505050506040513d601f19601f820116820180604052508101906108bb9190610b64565b505b60408051868152602081018590529081018290526001600160a01b03808816919089169033907fd6d34547c69c5ee3d2667625c188acf1006abb93e0ee7cf03925c67cf77604139060600160405180910390a4505061091b60018055565b949350505050565b6000546001600160a01b031633146103375760405163118cdaa760e01b8152336004820152602401610221565b600080546001600160a01b038381166001600160a01b0319831681178455604051919092169283917f8be0079c531659141344cd1fd0a4f28419497f9722a3daafe3b4186f6b6457e09190a35050565b6002600154036109c357604051633ee5aeb560e01b815260040160405180910390fd5b6002600155565b6000602082840312156109dc57600080fd5b5035919050565b80356001600160a01b03811681146109fa57600080fd5b919050565b600080600060608486031215610a1457600080fd5b610a1d846109e3565b9250610a2b602085016109e3565b9150604084013590509250925092565b60008060408385031215610a4e57600080fd5b610a57836109e3565b9150610a65602084016109e3565b90509250929050565b60008060408385031215610a8157600080fd5b610a8a836109e3565b946020939093013593505050565b600060208284031215610aaa57600080fd5b610ab3826109e3565b9392505050565b60008060008060808587031215610ad057600080fd5b610ad9856109e3565b9350610ae7602086016109e3565b93969395505050506040820135916060013590565b634e487b7160e01b600052601160045260246000fd5b8082028115828204841417610b2957610b29610afc565b92915050565b600082610b4c57634e487b7160e01b600052601260045260246000fd5b500490565b81810381811115610b2957610b29610afc565b600060208284031215610b7657600080fd5b81518015158114610ab357600080fdfea26469706673582212201706e6356a0fa943cbb8f66b590abcd845bf0d16d931d7039d87435016e016c664736f6c63430008140033",
  "linkReferences": {},
  "deployedLinkReferences": {}
}