{"contracts/TokenSwap.sol":{"TokenSwap":{"abi":[{"inputs":[{"internalType":"address","name":"_feeCollector","type":"address"}],"stateMutability":"nonpayable","type":"constructor"},{"inputs":[{"internalType":"address","name":"owner","type":"address"}],"name":"OwnableInvalidOwner","type":"error"},{"inputs":[{"internalType":"address","name":"account","type":"address"}],"name":"OwnableUnauthorizedAccount","type":"error"},{"inputs":[],"name":"ReentrancyGuardReentrantCall","type":"error"},{"anonymous":false,"inputs":[{"indexed":true,"internalType":"address","name":"tokenA","type":"address"},{"indexed":true,"internalType":"address","name":"tokenB","type":"address"},{"indexed":false,"internalType":"uint256","name":"rate","type":"uint256"}],"name":"ExchangeRateUpdated","type":"event"},{"anonymous":false,"inputs":[{"indexed":false,"internalType":"uint256","name":"newFee","type":"uint256"}],"name":"FeeUpdated","type":"event"},{"anonymous":false,"inputs":[{"indexed":true,"internalType":"address","name":"previousOwner","type":"address"},{"indexed":true,"internalType":"address","name":"newOwner","type":"address"}],"name":"OwnershipTransferred","type":"event"},{"anonymous":false,"inputs":[{"indexed":true,"internalType":"address","name":"user","type":"address"},{"indexed":true,"internalType":"address","name":"tokenIn","type":"address"},{"indexed":true,"internalType":"address","name":"tokenOut","type":"address"},{"indexed":false,"internalType":"uint256","name":"amountIn","type":"uint256"},{"indexed":false,"internalType":"uint256","name":"amountOut","type":"uint256"},{"indexed":false,"internalType":"uint256","name":"fee","type":"uint256"}],"name":"Swap","type":"event"},{"inputs":[{"internalType":"address","name":"token","type":"address"},{"internalType":"uint256","name":"amount","type":"uint256"}],"name":"emergencyWithdraw","outputs":[],"stateMutability":"nonpayable","type":"function"},{"inputs":[{"internalType":"address","name":"","type":"address"},{"internalType":"address","name":"","type":"address"}],"name":"exchangeRates","outputs":[{"internalType":"uint256","name":"","type":"uint256"}],"stateMutability":"view","type":"function"},{"inputs":[],"name":"feeCollector","outputs":[{"internalType":"address","name":"","type":"address"}],"stateMutability":"view","type":"function"},{"inputs":[{"internalType":"address","name":"tokenIn","type":"address"},{"internalType":"address","name":"tokenOut","type":"address"},{"internalType":"uint256","name":"amountIn","type":"uint256"}],"name":"getAmountOut","outputs":[{"internalType":"uint256","name":"amountOut","type":"uint256"},{"internalType":"uint256","name":"fee","type":"uint256"}],"stateMutability":"view","type":"function"},{"inputs":[],"name":"owner","outputs":[{"internalType":"address","name":"","type":"address"}],"stateMutability":"view","type":"function"},{"inputs":[],"name":"renounceOwnership","outputs":[],"stateMutability":"nonpayable","type":"function"},{"inputs":[{"internalType":"address","name":"tokenA","type":"address"},{"internalType":"address","name":"tokenB","type":"address"},{"internalType":"uint256","name":"rate","type":"uint256"}],"name":"setExchangeRate","outputs":[],"stateMutability":"nonpayable","type":"function"},{"inputs":[{"internalType":"address","name":"newCollector","type":"address"}],"name":"setFeeCollector","outputs":[],"stateMutability":"nonpayable","type":"function"},{"inputs":[{"internalType":"uint256","name":"newFee","type":"uint256"}],"name":"setSwapFee","outputs":[],"stateMutability":"nonpayable","type":"function"},{"inputs":[{"internalType":"address","name":"tokenIn","type":"address"},{"internalType":"address","name":"tokenOut","type":"address"},{"internalType":"uint256","name":"amountIn","type":"uint256"},{"internalType":"uint256","name":"minAmountOut","type":"uint256"}],"name":"swap","outputs":[{"internalType":"uint256","name":"amountOut","type":"uint256"}],"stateMutability":"nonpayable","type":"function"},{"inputs":[],"name":"swapFeePercent","outputs":[{"internalType":"uint256","name":"","type":"uint256"}],"stateMutability":"view","type":"function"},{"inputs":[{"internalType":"address","name":"newOwner","type":"address"}],"name":"transferOwnership","outputs":[],"stateMutability":"nonpayable","type":"function"}],"evm":{"bytecode":{"linkReferences":{},"object":"6080604052601e60035534801561001557600080fd5b50604051610cd8380380610cd8833981016040819052610034916100dd565b338061005a57604051631e4fbdf760e01b81526000600482015260240160405180910390fd5b6100638161008d565b5060018055600480546001600160a01b0319166001600160a01b039290921691909117905561010d565b600080546001600160a01b038381166001600160a01b0319831681178455604051919092169283917f8be0079c531659141344cd1fd0a4f28419497f9722a3daafe3b4186f6b6457e09190a35050565b6000602082840312156100ef57600080fd5b81516001600160a01b038116811461010657600080fd5b9392505050565b610bbc8061011c6000396000f3fe608060405234801561001057600080fd5b50600436106100b45760003560e01c80638fb9085b116100715780638fb9085b1461017457806395ccea671461017d578063a42dce8014610190578063c415b95c146101a3578063f2fde38b146101b6578063fe029156146101c957600080fd5b806334e19907146100b95780634aa06652146100ce578063503fa44f146100fb578063715018a614610134578063782aaeea1461013c5780638da5cb5b1461014f575b600080fd5b6100cc6100c73660046109ca565b6101dc565b005b6100e16100dc3660046109ff565b610265565b604080519283526020830191909152015b60405180910390f35b610126610109366004610a3b565b600260209081526000928352604080842090915290825290205481565b6040519081526020016100f2565b6100cc610325565b6100cc61014a3660046109ff565b610339565b6000546001600160a01b03165b6040516001600160a01b0390911681526020016100f2565b61012660035481565b6100cc61018b366004610a6e565b610456565b6100cc61019e366004610a98565b6104f5565b60045461015c906001600160a01b031681565b6100cc6101c4366004610a98565b610567565b6101266101d7366004610aba565b6105a5565b6101e4610923565b6103e881111561022a5760405162461bcd60e51b815260206004820152600c60248201526b08ccaca40e8dede40d0d2ced60a31b60448201526064015b60405180910390fd5b60038190556040518181527f8c4d35e54a3f2ef1134138fd8ea3daee6a3c89e10d2665996babdf70261e2c769060200160405180910390a150565b6001600160a01b0380841660009081526002602090815260408083209386168352929052908120548190806102d45760405162461bcd60e51b8152602060048201526015602482015274115e18da185b99d9481c985d19481b9bdd081cd95d605a1b6044820152606401610221565b670de0b6b3a76400006102e78286610b12565b6102f19190610b2f565b9250612710600354846103049190610b12565b61030e9190610b2f565b915061031a8284610b51565b925050935093915050565b61032d610923565b6103376000610950565b565b610341610923565b6001600160a01b0383161580159061036157506001600160a01b03821615155b6103a55760405162461bcd60e51b8152602060048201526015602482015274496e76616c696420746f6b656e206164647265737360581b6044820152606401610221565b600081116103f55760405162461bcd60e51b815260206004820152601b60248201527f52617465206d7573742062652067726561746572207468616e203000000000006044820152606401610221565b6001600160a01b0383811660008181526002602090815260408083209487168084529482529182902085905590518481527f59a196fe84b02ac66eaa374ec156916370441ddfce08830f5b33dfbdb057791a910160405180910390a3505050565b61045e610923565b816001600160a01b031663a9059cbb61047f6000546001600160a01b031690565b6040516001600160e01b031960e084901b1681526001600160a01b039091166004820152602481018490526044016020604051808303816000875af11580156104cc573d6000803e3d6000fd5b505050506040513d601f19601f820116820180604052508101906104f09190610b64565b505050565b6104fd610923565b6001600160a01b0381166105455760405162461bcd60e51b815260206004820152600f60248201526e496e76616c6964206164647265737360881b6044820152606401610221565b600480546001600160a01b0319166001600160a01b0392909216919091179055565b61056f610923565b6001600160a01b03811661059957604051631e4fbdf760e01b815260006004820152602401610221565b6105a281610950565b50565b60006105af6109a0565b836001600160a01b0316856001600160a01b0316036106095760405162461bcd60e51b815260206004820152601660248201527521b0b73737ba1039bbb0b81039b0b6b2903a37b5b2b760511b6044820152606401610221565b600083116106595760405162461bcd60e51b815260206004820152601d60248201527f416d6f756e74206d7573742062652067726561746572207468616e20300000006044820152606401610221565b6001600160a01b03808616600090815260026020908152604080832093881683529290522054806106c45760405162461bcd60e51b8152602060048201526015602482015274115e18da185b99d9481c985d19481b9bdd081cd95d605a1b6044820152606401610221565b670de0b6b3a76400006106d78286610b12565b6106e19190610b2f565b91506000612710600354846106f69190610b12565b6107009190610b2f565b905061070c8184610b51565b9250838310156107525760405162461bcd60e51b81526020600482015260116024820152700a6d8d2e0e0c2ceca40e8dede40d0d2ced607b1b6044820152606401610221565b6040516323b872dd60e01b8152336004820152306024820152604481018690526001600160a01b038816906323b872dd906064016020604051808303816000875af11580156107a5573d6000803e3d6000fd5b505050506040513d601f19601f820116820180604052508101906107c99190610b64565b5060405163a9059cbb60e01b8152336004820152602481018490526001600160a01b0387169063a9059cbb906044016020604051808303816000875af1158015610817573d6000803e3d6000fd5b505050506040513d601f19601f8201168201806040525081019061083b9190610b64565b5080156108bd576004805460405163a9059cbb60e01b81526001600160a01b03918216928101929092526024820183905287169063a9059cbb906044016020604051808303816000875af1158015610897573d6000803e3d6000fd5b505050506040513d601f19601f820116820180604052508101906108bb9190610b64565b505b60408051868152602081018590529081018290526001600160a01b03808816919089169033907fd6d34547c69c5ee3d2667625c188acf1006abb93e0ee7cf03925c67cf77604139060600160405180910390a4505061091b60018055565b949350505050565b6000546001600160a01b031633146103375760405163118cdaa760e01b8152336004820152602401610221565b600080546001600160a01b038381166001600160a01b0319831681178455604051919092169283917f8be0079c531659141344cd1fd0a4f28419497f9722a3daafe3b4186f6b6457e09190a35050565b6002600154036109c357604051633ee5aeb560e01b815260040160405180910390fd5b6002600155565b6000602082840312156109dc57600080fd5b5035919050565b80356001600160a01b03811681146109fa57600080fd5b919050565b600080600060608486031215610a1457600080fd5b610a1d846109e3565b9250610a2b602085016109e3565b9150604084013590509250925092565b60008060408385031215610a4e57600080fd5b610a57836109e3565b9150610a65602084016109e3565b90509250929050565b60008060408385031215610a8157600080fd5b610a8a836109e3565b946020939093013593505050565b600060208284031215610aaa57600080fd5b610ab3826109e3565b9392505050565b60008060008060808587031215610ad057600080fd5b610ad9856109e3565b9350610ae7602086016109e3565b93969395505050506040820135916060013590565b634e487b7160e01b600052601160045260246000fd5b8082028115828204841417610b2957610b29610afc565b92915050565b600082610b4c57634e487b7160e01b600052601260045260246000fd5b500490565b81810381811115610b2957610b29610afc565b600060208284031215610b7657600080fd5b81518015158114610ab357600080fdfea26469706673582212201706e6356a0fa943cbb8f66b590abcd845bf0d16d931d7039d87435016e016c664736f6c63430008140033","opcodes":"PUSH1 0x80 PUSH1 0x40 MSTORE PUSH1 0x1E PUSH1 0x3 SSTORE CALLVALUE DUP1 ISZERO PUSH2 0x15 JUMPI PUSH1 0x0 DUP1 REVERT JUMPDEST POP PUSH1 0x40 MLOAD PUSH2 0xCD8 CODESIZE SUB DUP1 PUSH2 0xCD8 DUP4 CODECOPY DUP2 ADD PUSH1 0x40 DUP2 SWAP1 MSTORE PUSH2 0x34 SWAP2 PUSH2 0xDD JUMP JUMPDEST CALLER DUP1 PUSH2 0x5A JUMPI PUSH1 0x40 MLOAD PUSH4 0x1E4FBDF7 PUSH1 0xE0 SHL DUP2 MSTORE PUSH1 0x0 PUSH1 0x4 DUP3 ADD MSTORE PUSH1 0x24 ADD PUSH1 0x40 MLOAD DUP1 SWAP2 SUB SWAP1 REVERT JUMPDEST PUSH2 0x63 DUP2 PUSH2 0x8D JUMP JUMPDEST POP PUSH1 0x1 DUP1 SSTORE PUSH1 0x4 DUP1 SLOAD PUSH1 0x1 PUSH1 0x1 PUSH1 0xA0 SHL SUB NOT AND PUSH1 0x1 PUSH1 0x1 PUSH1 0xA0 SHL SUB SWAP3 SWAP1 SWAP3 AND SWAP2 SWAP1 SWAP2 OR SWAP1 SSTORE PUSH2 0x10D JUMP JUMPDEST PUSH1 0x0 DUP1 SLOAD PUSH1 0x1 PUSH1 0x1 PUSH1 0xA0 SHL SUB DUP4 DUP2 AND PUSH1 0x1 PUSH1 0x1 PUSH1 0xA0 SHL SUB NOT DUP4 AND DUP2 OR DUP5 SSTORE PUSH1 0x40 MLOAD SWAP2 SWAP1 SWAP3 AND SWAP3 DUP4 SWAP2 PUSH32 0x8BE0079C531659141344CD1FD0A4F28419497F9722A3DAAFE3B4186F6B6457E0 SWAP2 SWAP1 LOG3 POP POP JUMP JUMPDEST PUSH1 0x0 PUSH1 0x20 DUP3 DUP5 SUB SLT ISZERO PUSH2 0xEF JUMPI PUSH1 0x0 DUP1 REVERT JUMPDEST DUP2 MLOAD PUSH1 0x1 PUSH1 0x1 PUSH1 0xA0 SHL SUB DUP2 AND DUP2 EQ PUSH2 0x106 JUMPI PUSH1 0x0 DUP1 REVERT JUMPDEST SWAP4 SWAP3 POP POP POP JUMP JUMPDEST PUSH2 0xBBC DUP1 PUSH2 0x11C PUSH1 0x0 CODECOPY PUSH1 0x0 RETURN INVALID PUSH1 0x80 PUSH1 0x40 MSTORE CALLVALUE DUP1 ISZERO PUSH2 0x10 JUMPI PUSH1 0x0 DUP1 REVERT JUMPDEST POP PUSH1 0x4 CALLDATASIZE LT PUSH2 0xB4 JUMPI PUSH1 0x0 CALLDATALOAD PUSH1 0xE0 SHR DUP1 PUSH4 0x8FB9085B GT PUSH2 0x71 JUMPI DUP1 PUSH4 0x8FB9085B EQ PUSH2 0x174 JUMPI DUP1 PUSH4 0x95CCEA67 EQ PUSH2 0x17D JUMPI DUP1 PUSH4 0xA42DCE80 EQ PUSH2 0x190 JUMPI DUP1 PUSH4 0xC415B95C EQ PUSH2 0x1A3 JUMPI DUP1 PUSH4 0xF2FDE38B EQ PUSH2 0x1B6 JUMPI DUP1 PUSH4 0xFE029156 EQ PUSH2 0x1C9 JUMPI PUSH1 0x0 DUP1 REVERT JUMPDEST DUP1 PUSH4 0x34E19907 EQ PUSH2 0xB9 JUMPI DUP1 PUSH4 0x4AA06652 EQ PUSH2 0xCE JUMPI DUP1 PUSH4 0x503FA44F EQ PUSH2 0xFB JUMPI DUP1 PUSH4 0x715018A6 EQ PUSH2 0x134 JUMPI DUP1 PUSH4 0x782AAEEA EQ PUSH2 0x13C JUMPI DUP1 PUSH4 0x8DA5CB5B EQ PUSH2 0x14F JUMPI JUMPDEST PUSH1 0x0 DUP1 REVERT JUMPDEST PUSH2 0xCC PUSH2 0xC7 CALLDATASIZE PUSH1 0x4 PUSH2 0x9CA JUMP JUMPDEST PUSH2 0x1DC JUMP JUMPDEST STOP JUMPDEST PUSH2 0xE1 PUSH2 0xDC CALLDATASIZE PUSH1 0x4 PUSH2 0x9FF JUMP JUMPDEST PUSH2 0x265 JUMP JUMPDEST PUSH1 0x40 DUP1 MLOAD SWAP3 DUP4 MSTORE PUSH1 0x20 DUP4 ADD SWAP2 SWAP1 SWAP2 MSTORE ADD JUMPDEST PUSH1 0x40 MLOAD DUP1 SWAP2 SUB SWAP1 RETURN JUMPDEST PUSH2 0x126 PUSH2 0x109 CALLDATASIZE PUSH1 0x4 PUSH2 0xA3B JUMP JUMPDEST PUSH1 0x2 PUSH1 0x20 SWAP1 DUP2 MSTORE PUSH1 0x0 SWAP3 DUP4 MSTORE PUSH1 0x40 DUP1 DUP5 KECCAK256 SWAP1 SWAP2 MSTORE SWAP1 DUP3 MSTORE SWAP1 KECCAK256 SLOAD DUP2 JUMP JUMPDEST PUSH1 0x40 MLOAD SWAP1 DUP2 MSTORE PUSH1 0x20 ADD PUSH2 0xF2 JUMP JUMPDEST PUSH2 0xCC PUSH2 0x325 JUMP JUMPDEST PUSH2 0xCC PUSH2 0x14A CALLDATASIZE PUSH1 0x4 PUSH2 0x9FF JUMP JUMPDEST PUSH2 0x339 JUMP JUMPDEST PUSH1 0x0 SLOAD PUSH1 0x1 PUSH1 0x1 PUSH1 0xA0 SHL SUB AND JUMPDEST PUSH1 0x40 MLOAD PUSH1 0x1 PUSH1 0x1 PUSH1 0xA0 SHL SUB SWAP1 SWAP2 AND DUP2 MSTORE PUSH1 0x20 ADD PUSH2 0xF2 JUMP JUMPDEST PUSH2 0x126 PUSH1 0x3 SLOAD DUP2 JUMP JUMPDEST PUSH2 0xCC PUSH2 0x18B CALLDATASIZE PUSH1 0x4 PUSH2 0xA6E JUMP JUMPDEST PUSH2 0x456 JUMP JUMPDEST PUSH2 0xCC PUSH2 0x19E CALLDATASIZE PUSH1 0x4 PUSH2 0xA98 JUMP JUMPDEST PUSH2 0x4F5 JUMP JUMPDEST PUSH1 0x4 SLOAD PUSH2 0x15C SWAP1 PUSH1 0x1 PUSH1 0x1 PUSH1 0xA0 SHL SUB AND DUP2 JUMP JUMPDEST PUSH2 0xCC PUSH2 0x1C4 CALLDATASIZE PUSH1 0x4 PUSH2 0xA98 JUMP JUMPDEST PUSH2 0x567 JUMP JUMPDEST PUSH2 0x126 PUSH2 0x1D7 CALLDATASIZE PUSH1 0x4 PUSH2 0xABA JUMP JUMPDEST PUSH2 0x5A5 JUMP JUMPDEST PUSH2 0x1E4 PUSH2 0x923 JUMP JUMPDEST PUSH2 0x3E8 DUP2 GT ISZERO PUSH2 0x22A JUMPI PUSH1 0x40 MLOAD PUSH3 0x461BCD PUSH1 0xE5 SHL DUP2 MSTORE PUSH1 0x20 PUSH1 0x4 DUP3 ADD MSTORE PUSH1 0xC PUSH1 0x24 DUP3 ADD MSTORE PUSH12 0x8CCACA40E8DEDE40D0D2CED PUSH1 0xA3 SHL PUSH1 0x44 DUP3 ADD MSTORE PUSH1 0x64 ADD JUMPDEST PUSH1 0x40 MLOAD DUP1 SWAP2 SUB SWAP1 REVERT JUMPDEST PUSH1 0x3 DUP2 SWAP1 SSTORE PUSH1 0x40 MLOAD DUP2 DUP2 MSTORE PUSH32 0x8C4D35E54A3F2EF1134138FD8EA3DAEE6A3C89E10D2665996BABDF70261E2C76 SWAP1 PUSH1 0x20 ADD PUSH1 0x40 MLOAD DUP1 SWAP2 SUB SWAP1 LOG1 POP JUMP JUMPDEST PUSH1 0x1 PUSH1 0x1 PUSH1 0xA0 SHL SUB DUP1 DUP5 AND PUSH1 0x0 SWAP1 DUP2 MSTORE PUSH1 0x2 PUSH1 0x20 SWAP1 DUP2 MSTORE PUSH1 0x40 DUP1 DUP4 KECCAK256 SWAP4 DUP7 AND DUP4 MSTORE SWAP3 SWAP1 MSTORE SWAP1 DUP2 KECCAK256 SLOAD DUP2 SWAP1 DUP1 PUSH2 0x2D4 JUMPI PUSH1 0x40 MLOAD PUSH3 0x461BCD PUSH1 0xE5 SHL DUP2 MSTORE PUSH1 0x20 PUSH1 0x4 DUP3 ADD MSTORE PUSH1 0x15 PUSH1 0x24 DUP3 ADD MSTORE PUSH21 0x115E18DA185B99D9481C985D19481B9BDD081CD95D PUSH1 0x5A SHL PUSH1 0x44 DUP3 ADD MSTORE PUSH1 0x64 ADD PUSH2 0x221 JUMP JUMPDEST PUSH8 0xDE0B6B3A7640000 PUSH2 0x2E7 DUP3 DUP7 PUSH2 0xB12 JUMP JUMPDEST PUSH2 0x2F1 SWAP2 SWAP1 PUSH2 0xB2F JUMP JUMPDEST SWAP3 POP PUSH2 0x2710 PUSH1 0x3 SLOAD DUP5 PUSH2 0x304 SWAP2 SWAP1 PUSH2 0xB12 JUMP JUMPDEST PUSH2 0x30E SWAP2 SWAP1 PUSH2 0xB2F JUMP JUMPDEST SWAP2 POP PUSH2 0x31A DUP3 DUP5 PUSH2 0xB51 JUMP JUMPDEST SWAP3 POP POP SWAP4 POP SWAP4 SWAP2 POP POP JUMP JUMPDEST PUSH2 0x32D PUSH2 0x923 JUMP JUMPDEST PUSH2 0x337 PUSH1 0x0 PUSH2 0x950 JUMP JUMPDEST JUMP JUMPDEST PUSH2 0x341 PUSH2 0x923 JUMP JUMPDEST PUSH1 0x1 PUSH1 0x1 PUSH1 0xA0 SHL SUB DUP4 AND ISZERO DUP1 ISZERO SWAP1 PUSH2 0x361 JUMPI POP PUSH1 0x1 PUSH1 0x1 PUSH1 0xA0 SHL SUB DUP3 AND ISZERO ISZERO JUMPDEST PUSH2 0x3A5 JUMPI PUSH1 0x40 MLOAD PUSH3 0x461BCD PUSH1 0xE5 SHL DUP2 MSTORE PUSH1 0x20 PUSH1 0x4 DUP3 ADD MSTORE PUSH1 0x15 PUSH1 0x24 DUP3 ADD MSTORE PUSH21 0x496E76616C696420746F6B656E2061646472657373 PUSH1 0x58 SHL PUSH1 0x44 DUP3 ADD MSTORE PUSH1 0x64 ADD PUSH2 0x221 JUMP JUMPDEST PUSH1 0x0 DUP2 GT PUSH2 0x3F5 JUMPI PUSH1 0x40 MLOAD PUSH3 0x461BCD PUSH1 0xE5 SHL DUP2 MSTORE PUSH1 0x20 PUSH1 0x4 DUP3 ADD MSTORE PUSH1 0x1B PUSH1 0x24 DUP3 ADD MSTORE PUSH32 0x52617465206D7573742062652067726561746572207468616E20300000000000 PUSH1 0x44 DUP3 ADD MSTORE PUSH1 0x64 ADD PUSH2 0x221 JUMP JUMPDEST PUSH1 0x1 PUSH1 0x1 PUSH1 0xA0 SHL SUB DUP4 DUP2 AND PUSH1 0x0 DUP2 DUP2 MSTORE PUSH1 0x2 PUSH1 0x20 SWAP1 DUP2 MSTORE PUSH1 0x40 DUP1 DUP4 KECCAK256 SWAP5 DUP8 AND DUP1 DUP5 MSTORE SWAP5 DUP3 MSTORE SWAP2 DUP3 SWAP1 KECCAK256 DUP6 SWAP1 SSTORE SWAP1 MLOAD DUP5 DUP2 MSTORE PUSH32 0x59A196FE84B02AC66EAA374EC156916370441DDFCE08830F5B33DFBDB057791A SWAP2 ADD PUSH1 0x40 MLOAD DUP1 SWAP2 SUB SWAP1 LOG3 POP POP POP JUMP JUMPDEST PUSH2 0x45E PUSH2 0x923 JUMP JUMPDEST DUP2 PUSH1 0x1 PUSH1 0x1 PUSH1 0xA0 SHL SUB AND PUSH4 0xA9059CBB PUSH2 0x47F PUSH1 0x0 SLOAD PUSH1 0x1 PUSH1 0x1 PUSH1 0xA0 SHL SUB AND SWAP1 JUMP JUMPDEST PUSH1 0x40 MLOAD PUSH1 0x1 PUSH1 0x1 PUSH1 0xE0 SHL SUB NOT PUSH1 0xE0 DUP5 SWAP1 SHL AND DUP2 MSTORE PUSH1 0x1 PUSH1 0x1 PUSH1 0xA0 SHL SUB SWAP1 SWAP2 AND PUSH1 0x4 DUP3 ADD MSTORE PUSH1 0x24 DUP2 ADD DUP5 SWAP1 MSTORE PUSH1 0x44 ADD PUSH1 0x20 PUSH1 0x40 MLOAD DUP1 DUP4 SUB DUP2 PUSH1 0x0 DUP8 GAS CALL ISZERO DUP1 ISZERO PUSH2 0x4CC JUMPI RETURNDATASIZE PUSH1 0x0 DUP1 RETURNDATACOPY RETURNDATASIZE PUSH1 0x0 REVERT JUMPDEST POP POP POP POP PUSH1 0x40 MLOAD RETURNDATASIZE PUSH1 0x1F NOT PUSH1 0x1F DUP3 ADD AND DUP3 ADD DUP1 PUSH1 0x40 MSTORE POP DUP2 ADD SWAP1 PUSH2 0x4F0 SWAP2 SWAP1 PUSH2 0xB64 JUMP JUMPDEST POP POP POP JUMP JUMPDEST PUSH2 0x4FD PUSH2 0x923 JUMP JUMPDEST PUSH1 0x1 PUSH1 0x1 PUSH1 0xA0 SHL SUB DUP2 AND PUSH2 0x545 JUMPI PUSH1 0x40 MLOAD PUSH3 0x461BCD PUSH1 0xE5 SHL DUP2 MSTORE PUSH1 0x20 PUSH1 0x4 DUP3 ADD MSTORE PUSH1 0xF PUSH1 0x24 DUP3 ADD MSTORE PUSH15 0x496E76616C69642061646472657373 PUSH1 0x88 SHL PUSH1 0x44 DUP3 ADD MSTORE PUSH1 0x64 ADD PUSH2 0x221 JUMP JUMPDEST PUSH1 0x4 DUP1 SLOAD PUSH1 0x1 PUSH1 0x1 PUSH1 0xA0 SHL SUB NOT AND PUSH1 0x1 PUSH1 0x1 PUSH1 0xA0 SHL SUB SWAP3 SWAP1 SWAP3 AND SWAP2 SWAP1 SWAP2 OR SWAP1 SSTORE JUMP JUMPDEST PUSH2 0x56F PUSH2 0x923 JUMP JUMPDEST PUSH1 0x1 PUSH1 0x1 PUSH1 0xA0 SHL SUB DUP2 AND PUSH2 0x599 JUMPI PUSH1 0x40 MLOAD PUSH4 0x1E4FBDF7 PUSH1 0xE0 SHL DUP2 MSTORE PUSH1 0x0 PUSH1 0x4 DUP3 ADD MSTORE PUSH1 0x24 ADD PUSH2 0x221 JUMP JUMPDEST PUSH2 0x5A2 DUP2 PUSH2 0x950 JUMP JUMPDEST POP JUMP JUMPDEST PUSH1 0x0 PUSH2 0x5AF PUSH2 0x9A0 JUMP JUMPDEST DUP4 PUSH1 0x1 PUSH1 0x1 PUSH1 0xA0 SHL SUB AND DUP6 PUSH1 0x1 PUSH1 0x1 PUSH1 0xA0 SHL SUB AND SUB PUSH2 0x609 JUMPI PUSH1 0x40 MLOAD PUSH3 0x461BCD PUSH1 0xE5 SHL DUP2 MSTORE PUSH1 0x20 PUSH1 0x4 DUP3 ADD MSTORE PUSH1 0x16 PUSH1 0x24 DUP3 ADD MSTORE PUSH22 0x21B0B73737BA1039BBB0B81039B0B6B2903A37B5B2B7 PUSH1 0x51 SHL PUSH1 0x44 DUP3 ADD MSTORE PUSH1 0x64 ADD PUSH2 0x221 JUMP JUMPDEST PUSH1 0x0 DUP4 GT PUSH2 0x659 JUMPI PUSH1 0x40 MLOAD PUSH3 0x461BCD PUSH1 0xE5 SHL DUP2 MSTORE PUSH1 0x20 PUSH1 0x4 DUP3 ADD MSTORE PUSH1 0x1D PUSH1 0x24 DUP3 ADD MSTORE PUSH32 0x416D6F756E74206D7573742062652067726561746572207468616E2030000000 PUSH1 0x44 DUP3 ADD MSTORE PUSH1 0x64 ADD PUSH2 0x221 JUMP JUMPDEST PUSH1 0x1 PUSH1 0x1 PUSH1 0xA0 SHL SUB DUP1 DUP7 AND PUSH1 0x0 SWAP1 DUP2 MSTORE PUSH1 0x2 PUSH1 0x20 SWAP1 DUP2 MSTORE PUSH1 0x40 DUP1 DUP4 KECCAK256 SWAP4 DUP9 AND DUP4 MSTORE SWAP3 SWAP1 MSTORE KECCAK256 SLOAD DUP1 PUSH2 0x6C4 JUMPI PUSH1 0x40 MLOAD PUSH3 0x461BCD PUSH1 0xE5 SHL DUP2 MSTORE PUSH1 0x20 PUSH1 0x4 DUP3 ADD MSTORE PUSH1 0x15 PUSH1 0x24 DUP3 ADD MSTORE PUSH21 0x115E18DA185B99D9481C985D19481B9BDD081CD95D PUSH1 0x5A SHL PUSH1 0x44 DUP3 ADD MSTORE PUSH1 0x64 ADD PUSH2 0x221 JUMP JUMPDEST PUSH8 0xDE0B6B3A7640000 PUSH2 0x6D7 DUP3 DUP7 PUSH2 0xB12 JUMP JUMPDEST PUSH2 0x6E1 SWAP2 SWAP1 PUSH2 0xB2F JUMP JUMPDEST SWAP2 POP PUSH1 0x0 PUSH2 0x2710 PUSH1 0x3 SLOAD DUP5 PUSH2 0x6F6 SWAP2 SWAP1 PUSH2 0xB12 JUMP JUMPDEST PUSH2 0x700 SWAP2 SWAP1 PUSH2 0xB2F JUMP JUMPDEST SWAP1 POP PUSH2 0x70C DUP2 DUP5 PUSH2 0xB51 JUMP JUMPDEST SWAP3 POP DUP4 DUP4 LT ISZERO PUSH2 0x752 JUMPI PUSH1 0x40 MLOAD PUSH3 0x461BCD PUSH1 0xE5 SHL DUP2 MSTORE PUSH1 0x20 PUSH1 0x4 DUP3 ADD MSTORE PUSH1 0x11 PUSH1 0x24 DUP3 ADD MSTORE PUSH17 0xA6D8D2E0E0C2CECA40E8DEDE40D0D2CED PUSH1 0x7B SHL PUSH1 0x44 DUP3 ADD MSTORE PUSH1 0x64 ADD PUSH2 0x221 JUMP JUMPDEST PUSH1 0x40 MLOAD PUSH4 0x23B872DD PUSH1 0xE0 SHL DUP2 MSTORE CALLER PUSH1 0x4 DUP3 ADD MSTORE ADDRESS PUSH1 0x24 DUP3 ADD MSTORE PUSH1 0x44 DUP2 ADD DUP7 SWAP1 MSTORE PUSH1 0x1 PUSH1 0x1 PUSH1 0xA0 SHL SUB DUP9 AND SWAP1 PUSH4 0x23B872DD SWAP1 PUSH1 0x64 ADD PUSH1 0x20 PUSH1 0x40 MLOAD DUP1 DUP4 SUB DUP2 PUSH1 0x0 DUP8 GAS CALL ISZERO DUP1 ISZERO PUSH2 0x7A5 JUMPI RETURNDATASIZE PUSH1 0x0 DUP1 RETURNDATACOPY RETURNDATASIZE PUSH1 0x0 REVERT JUMPDEST POP POP POP POP PUSH1 0x40 MLOAD RETURNDATASIZE PUSH1 0x1F NOT PUSH1 0x1F DUP3 ADD AND DUP3 ADD DUP1 PUSH1 0x40 MSTORE POP DUP2 ADD SWAP1 PUSH2 0x7C9 SWAP2 SWAP1 PUSH2 0xB64 JUMP JUMPDEST POP PUSH1 0x40 MLOAD PUSH4 0xA9059CBB PUSH1 0xE0 SHL DUP2 MSTORE CALLER PUSH1 0x4 DUP3 ADD MSTORE PUSH1 0x24 DUP2 ADD DUP5 SWAP1 MSTORE PUSH1 0x1 PUSH1 0x1 PUSH1 0xA0 SHL SUB DUP8 AND SWAP1 PUSH4 0xA9059CBB SWAP1 PUSH1 0x44 ADD PUSH1 0x20 PUSH1 0x40 MLOAD DUP1 DUP4 SUB DUP2 PUSH1 0x0 DUP8 GAS CALL ISZERO DUP1 ISZERO PUSH2 0x817 JUMPI RETURNDATASIZE PUSH1 0x0 DUP1 RETURNDATACOPY RETURNDATASIZE PUSH1 0x0 REVERT JUMPDEST POP POP POP POP PUSH1 0x40 MLOAD RETURNDATASIZE PUSH1 0x1F NOT PUSH1 0x1F DUP3 ADD AND DUP3 ADD DUP1 PUSH1 0x40 MSTORE POP DUP2 ADD SWAP1 PUSH2 0x83B SWAP2 SWAP1 PUSH2 0xB64 JUMP JUMPDEST POP DUP1 ISZERO PUSH2 0x8BD JUMPI PUSH1 0x4 DUP1 SLOAD PUSH1 0x40 MLOAD PUSH4 0xA9059CBB PUSH1 0xE0 SHL DUP2 MSTORE PUSH1 0x1 PUSH1 0x1 PUSH1 0xA0 SHL SUB SWAP2 DUP3 AND SWAP3 DUP2 ADD SWAP3 SWAP1 SWAP3 MSTORE PUSH1 0x24 DUP3 ADD DUP4 SWAP1 MSTORE DUP8 AND SWAP1 PUSH4 0xA9059CBB SWAP1 PUSH1 0x44 ADD PUSH1 0x20 PUSH1 0x40 MLOAD DUP1 DUP4 SUB DUP2 PUSH1 0x0 DUP8 GAS CALL ISZERO DUP1 ISZERO PUSH2 0x897 JUMPI RETURNDATASIZE PUSH1 0x0 DUP1 RETURNDATACOPY RETURNDATASIZE PUSH1 0x0 REVERT JUMPDEST POP POP POP POP PUSH1 0x40 MLOAD RETURNDATASIZE PUSH1 0x1F NOT PUSH1 0x1F DUP3 ADD AND DUP3 ADD DUP1 PUSH1 0x40 MSTORE POP DUP2 ADD SWAP1 PUSH2 0x8BB SWAP2 SWAP1 PUSH2 0xB64 JUMP JUMPDEST POP JUMPDEST PUSH1 0x40 DUP1 MLOAD DUP7 DUP2 MSTORE PUSH1 0x20 DUP2 ADD DUP6 SWAP1 MSTORE SWAP1 DUP2 ADD DUP3 SWAP1 MSTORE PUSH1 0x1 PUSH1 0x1 PUSH1 0xA0 SHL SUB DUP1 DUP9 AND SWAP2 SWAP1 DUP10 AND SWAP1 CALLER SWAP1 PUSH32 0xD6D34547C69C5EE3D2667625C188ACF1006ABB93E0EE7CF03925C67CF7760413 SWAP1 PUSH1 0x60 ADD PUSH1 0x40 MLOAD DUP1 SWAP2 SUB SWAP1 LOG4 POP POP PUSH2 0x91B PUSH1 0x1 DUP1 SSTORE JUMP JUMPDEST SWAP5 SWAP4 POP POP POP POP JUMP JUMPDEST PUSH1 0x0 SLOAD PUSH1 0x1 PUSH1 0x1 PUSH1 0xA0 SHL SUB AND CALLER EQ PUSH2 0x337 JUMPI PUSH1 0x40 MLOAD PUSH4 0x118CDAA7 PUSH1 0xE0 SHL DUP2 MSTORE CALLER PUSH1 0x4 DUP3 ADD MSTORE PUSH1 0x24 ADD PUSH2 0x221 JUMP JUMPDEST PUSH1 0x0 DUP1 SLOAD PUSH1 0x1 PUSH1 0x1 PUSH1 0xA0 SHL SUB DUP4 DUP2 AND PUSH1 0x1 PUSH1 0x1 PUSH1 0xA0 SHL SUB NOT DUP4 AND DUP2 OR DUP5 SSTORE PUSH1 0x40 MLOAD SWAP2 SWAP1 SWAP3 AND SWAP3 DUP4 SWAP2 PUSH32 0x8BE0079C531659141344CD1FD0A4F28419497F9722A3DAAFE3B4186F6B6457E0 SWAP2 SWAP1 LOG3 POP POP JUMP JUMPDEST PUSH1 0x2 PUSH1 0x1 SLOAD SUB PUSH2 0x9C3 JUMPI PUSH1 0x40 MLOAD PUSH4 0x3EE5AEB5 PUSH1 0xE0 SHL DUP2 MSTORE PUSH1 0x4 ADD PUSH1 0x40 MLOAD DUP1 SWAP2 SUB SWAP1 REVERT JUMPDEST PUSH1 0x2 PUSH1 0x1 SSTORE JUMP JUMPDEST PUSH1 0x0 PUSH1 0x20 DUP3 DUP5 SUB SLT ISZERO PUSH2 0x9DC JUMPI PUSH1 0x0 DUP1 REVERT JUMPDEST POP CALLDATALOAD SWAP2 SWAP1 POP JUMP JUMPDEST DUP1 CALLDATALOAD PUSH1 0x1 PUSH1 0x1 PUSH1 0xA0 SHL SUB DUP2 AND DUP2 EQ PUSH2 0x9FA JUMPI PUSH1 0x0 DUP1 REVERT JUMPDEST SWAP2 SWAP1 POP JUMP JUMPDEST PUSH1 0x0 DUP1 PUSH1 0x0 PUSH1 0x60 DUP5 DUP7 SUB SLT ISZERO PUSH2 0xA14 JUMPI PUSH1 0x0 DUP1 REVERT JUMPDEST PUSH2 0xA1D DUP5 PUSH2 0x9E3 JUMP JUMPDEST SWAP3 POP PUSH2 0xA2B PUSH1 0x20 DUP6 ADD PUSH2 0x9E3 JUMP JUMPDEST SWAP2 POP PUSH1 0x40 DUP5 ADD CALLDATALOAD SWAP1 POP SWAP3 POP SWAP3 POP SWAP3 JUMP JUMPDEST PUSH1 0x0 DUP1 PUSH1 0x40 DUP4 DUP6 SUB SLT ISZERO PUSH2 0xA4E JUMPI PUSH1 0x0 DUP1 REVERT JUMPDEST PUSH2 0xA57 DUP4 PUSH2 0x9E3 JUMP JUMPDEST SWAP2 POP PUSH2 0xA65 PUSH1 0x20 DUP5 ADD PUSH2 0x9E3 JUMP JUMPDEST SWAP1 POP SWAP3 POP SWAP3 SWAP1 POP JUMP JUMPDEST PUSH1 0x0 DUP1 PUSH1 0x40 DUP4 DUP6 SUB SLT ISZERO PUSH2 0xA81 JUMPI PUSH1 0x0 DUP1 REVERT JUMPDEST PUSH2 0xA8A DUP4 PUSH2 0x9E3 JUMP JUMPDEST SWAP5 PUSH1 0x20 SWAP4 SWAP1 SWAP4 ADD CALLDATALOAD SWAP4 POP POP POP JUMP JUMPDEST PUSH1 0x0 PUSH1 0x20 DUP3 DUP5 SUB SLT ISZERO PUSH2 0xAAA JUMPI PUSH1 0x0 DUP1 REVERT JUMPDEST PUSH2 0xAB3 DUP3 PUSH2 0x9E3 JUMP JUMPDEST SWAP4 SWAP3 POP POP POP JUMP JUMPDEST PUSH1 0x0 DUP1 PUSH1 0x0 DUP1 PUSH1 0x80 DUP6 DUP8 SUB SLT ISZERO PUSH2 0xAD0 JUMPI PUSH1 0x0 DUP1 REVERT JUMPDEST PUSH2 0xAD9 DUP6 PUSH2 0x9E3 JUMP JUMPDEST SWAP4 POP PUSH2 0xAE7 PUSH1 0x20 DUP7 ADD PUSH2 0x9E3 JUMP JUMPDEST SWAP4 SWAP7 SWAP4 SWAP6 POP POP POP POP PUSH1 0x40 DUP3 ADD CALLDATALOAD SWAP2 PUSH1 0x60 ADD CALLDATALOAD SWAP1 JUMP JUMPDEST PUSH4 0x4E487B71 PUSH1 0xE0 SHL PUSH1 0x0 MSTORE PUSH1 0x11 PUSH1 0x4 MSTORE PUSH1 0x24 PUSH1 0x0 REVERT JUMPDEST DUP1 DUP3 MUL DUP2 ISZERO DUP3 DUP3 DIV DUP5 EQ OR PUSH2 0xB29 JUMPI PUSH2 0xB29 PUSH2 0xAFC JUMP JUMPDEST SWAP3 SWAP2 POP POP JUMP JUMPDEST PUSH1 0x0 DUP3 PUSH2 0xB4C JUMPI PUSH4 0x4E487B71 PUSH1 0xE0 SHL PUSH1 0x0 MSTORE PUSH1 0x12 PUSH1 0x4 MSTORE PUSH1 0x24 PUSH1 0x0 REVERT JUMPDEST POP DIV SWAP1 JUMP JUMPDEST DUP2 DUP2 SUB DUP2 DUP2 GT ISZERO PUSH2 0xB29 JUMPI PUSH2 0xB29 PUSH2 0xAFC JUMP JUMPDEST PUSH1 0x0 PUSH1 0x20 DUP3 DUP5 SUB SLT ISZERO PUSH2 0xB76 JUMPI PUSH1 0x0 DUP1 REVERT JUMPDEST DUP2 MLOAD DUP1 ISZERO ISZERO DUP2 EQ PUSH2 0xAB3 JUMPI PUSH1 0x0 DUP1 REVERT INVALID LOG2 PUSH5 0x6970667358 0x22 SLT KECCAK256 OR MOD 0xE6 CALLDATALOAD PUSH11 0xFA943CBB8F66B590ABCD8 GASLIMIT 0xBF 0xD AND 0xD9 BALANCE 0xD7 SUB SWAP14 DUP8 NUMBER POP AND 0xE0 AND 0xC6 PUSH5 0x736F6C6343 STOP ADDMOD EQ STOP CALLER "},"methodIdentifiers":{"emergencyWithdraw(address,uint256)":"95ccea67","exchangeRates(address,address)":"503fa44f","feeCollector()":"c415b95c","getAmountOut(address,address,uint256)":"4aa06652","owner()":"8da5cb5b","renounceOwnership()":"715018a6","setExchangeRate(address,address,uint256)":"782aaeea","setFeeCollector(address)":"a42dce80","setSwapFee(uint256)":"34e19907","swap(address,address,uint256,uint256)":"fe029156","swapFeePercent()":"8fb9085b","transferOwnership(address)":"f2fde38b"}}}}}